{
  "contractName": "MyContract",
  "abi": [
    {
      "inputs": [
        {
          "internalType": "uint256",
          "name": "_studentId",
          "type": "uint256"
        },
        {
          "internalType": "string",
          "name": "_name",
          "type": "string"
        },
        {
          "internalType": "string",
          "name": "_gender",
          "type": "string"
        },
        {
          "internalType": "uint256",
          "name": "_age",
          "type": "uint256"
        }
      ],
      "name": "setStudent",
      "outputs": [],
      "stateMutability": "nonpayable",
      "type": "function"
    },
    {
      "inputs": [
        {
          "internalType": "uint256",
          "name": "_studentId",
          "type": "uint256"
        }
      ],
      "name": "getStudentInfo",
      "outputs": [
        {
          "internalType": "string",
          "name": "",
          "type": "string"
        },
        {
          "internalType": "string",
          "name": "",
          "type": "string"
        },
        {
          "internalType": "uint256",
          "name": "",
          "type": "uint256"
        }
      ],
      "stateMutability": "view",
      "type": "function",
      "constant": true
    }
  ],
  "bytecode": "0x608060405234801561001057600080fd5b50610880806100206000396000f3fe608060405234801561001057600080fd5b50600436106100365760003560e01c806365a81d7d1461003b57806368accc121461006d575b600080fd5b61005560048036038101906100509190610287565b610089565b60405161006493929190610353565b60405180910390f35b610087600480360381019061008291906104cd565b6101f3565b005b6060806000806000858152602001908152602001600020600001600080868152602001908152602001600020600101600080878152602001908152602001600020600201548280546100da9061059b565b80601f01602080910402602001604051908101604052809291908181526020018280546101069061059b565b80156101535780601f1061012857610100808354040283529160200191610153565b820191906000526020600020905b81548152906001019060200180831161013657829003601f168201915b505050505092508180546101669061059b565b80601f01602080910402602001604051908101604052809291908181526020018280546101929061059b565b80156101df5780601f106101b4576101008083540402835291602001916101df565b820191906000526020600020905b8154815290600101906020018083116101c257829003601f168201915b505050505091509250925092509193909250565b600080600086815260200190815260200160002090508381600001908161021a9190610778565b508281600101908161022c9190610778565b508181600201819055505050505050565b6000604051905090565b600080fd5b600080fd5b6000819050919050565b61026481610251565b811461026f57600080fd5b50565b6000813590506102818161025b565b92915050565b60006020828403121561029d5761029c610247565b5b60006102ab84828501610272565b91505092915050565b600081519050919050565b600082825260208201905092915050565b60005b838110156102ee5780820151818401526020810190506102d3565b60008484015250505050565b6000601f19601f8301169050919050565b6000610316826102b4565b61032081856102bf565b93506103308185602086016102d0565b610339816102fa565b840191505092915050565b61034d81610251565b82525050565b6000606082019050818103600083015261036d818661030b565b90508181036020830152610381818561030b565b90506103906040830184610344565b949350505050565b600080fd5b600080fd5b7f4e487b7100000000000000000000000000000000000000000000000000000000600052604160045260246000fd5b6103da826102fa565b810181811067ffffffffffffffff821117156103f9576103f86103a2565b5b80604052505050565b600061040c61023d565b905061041882826103d1565b919050565b600067ffffffffffffffff821115610438576104376103a2565b5b610441826102fa565b9050602081019050919050565b82818337600083830152505050565b600061047061046b8461041d565b610402565b90508281526020810184848401111561048c5761048b61039d565b5b61049784828561044e565b509392505050565b600082601f8301126104b4576104b3610398565b5b81356104c484826020860161045d565b91505092915050565b600080600080608085870312156104e7576104e6610247565b5b60006104f587828801610272565b945050602085013567ffffffffffffffff8111156105165761051561024c565b5b6105228782880161049f565b935050604085013567ffffffffffffffff8111156105435761054261024c565b5b61054f8782880161049f565b925050606061056087828801610272565b91505092959194509250565b7f4e487b7100000000000000000000000000000000000000000000000000000000600052602260045260246000fd5b600060028204905060018216806105b357607f821691505b6020821081036105c6576105c561056c565b5b50919050565b60008190508160005260206000209050919050565b60006020601f8301049050919050565b600082821b905092915050565b60006008830261062e7fffffffffffffffffffffffffffffffffffffffffffffffffffffffffffffffff826105f1565b61063886836105f1565b95508019841693508086168417925050509392505050565b6000819050919050565b600061067561067061066b84610251565b610650565b610251565b9050919050565b6000819050919050565b61068f8361065a565b6106a361069b8261067c565b8484546105fe565b825550505050565b600090565b6106b86106ab565b6106c3818484610686565b505050565b5b818110156106e7576106dc6000826106b0565b6001810190506106c9565b5050565b601f82111561072c576106fd816105cc565b610706846105e1565b81016020851015610715578190505b610729610721856105e1565b8301826106c8565b50505b505050565b600082821c905092915050565b600061074f60001984600802610731565b1980831691505092915050565b6000610768838361073e565b9150826002028217905092915050565b610781826102b4565b67ffffffffffffffff81111561079a576107996103a2565b5b6107a4825461059b565b6107af8282856106eb565b600060209050601f8311600181146107e257600084156107d0578287015190505b6107da858261075c565b865550610842565b601f1984166107f0866105cc565b60005b82811015610818578489015182556001820191506020850194506020810190506107f3565b868310156108355784890151610831601f89168261073e565b8355505b6001600288020188555050505b50505050505056fea264697066735822122014a023d39c1c9f65e35e36fb8d16bdc07a16c1f5342696ef5340f39b93fbf74c64736f6c63430008130033",
  "immutableReferences": {},
  "source": "// SPDX-License-Identifier: UNLICENSED\r\npragma solidity 0.8.19;\r\n\r\ncontract MyContract{\r\n    struct Student {\r\n        string studentName;\r\n        string gender;\r\n        uint age;\r\n    }\r\n    mapping(uint256 => Student) studentInfo;\r\n    \r\n    function setStudent(uint _studentId, string memory _name, string memory _gender, uint _age) public {\r\n        Student storage student = studentInfo[_studentId];\r\n\r\n        student.studentName = _name;\r\n        student.gender = _gender;\r\n        student.age = _age;\r\n    }\r\n    \r\n    function getStudentInfo(uint256 _studentId) public view returns (string memory, string memory, uint) {\r\n        return (studentInfo[_studentId].studentName, studentInfo[_studentId].gender, studentInfo[_studentId].age);\r\n    }\r\n}\r\n\r\n",
  "sourcePath": "C:\\Users\\SSAFY\\practice\\truffle\\contracts\\MyContract.sol",
  "compiler": {
    "name": "solc",
    "version": "0.8.19+commit.7dd6d404.Emscripten.clang"
  },
  "schemaVersion": "3.4.13",
  "updatedAt": "2023-04-27T07:42:44.522Z",
  "networkType": "ethereum",
  "devdoc": {
    "kind": "dev",
    "methods": {},
    "version": 1
  },
  "userdoc": {
    "kind": "user",
    "methods": {},
    "version": 1
  }
}